:100000000EC028C027C026C025C025C023C022C0DE
:1000100021C020C01FC01EC01DC01CC01BC0112499
:100020001FBECFE5D2E0DEBFCDBF10E0A0E6B0E05E
:10003000E8ECF1E002C005900D92A236B107D9F7C5
:1000400020E0A2E6B0E001C01D92A137B207E1F7BF
:100050004CD0B8C0D5CF1F920F920FB60F9211247B
:100060002F933F938F939F93AF93BF93809167009C
:1000700090916800A0916900B0916A00309166008B
:1000800026E0230F2D3730F029E8230F0396A11D1A
:10009000B11D03C00296A11DB11D2093660080937F
:1000A000670090936800A0936900B0936A00809104
:1000B000620090916300A0916400B0916500019688
:1000C000A11DB11D8093620090936300A093640012
:1000D000B0936500BF91AF919F918F913F912F9108
:1000E0000F900FBE0F901F90189523E02ABD23BFDD
:1000F000789429B7226029BF20E42CBD2FEF2DBDB5
:1001000027EC20BF26E826B9BA98C29AB998C198B8
:1001100021E036B332FB882780F990E040916000FF
:100120005091610084179507A1F13FB7F894409171
:100130006700509168006091690070916A003FBF4C
:1001400040936D0050936E0060936F007093700049
:1001500010926C00009789F53FB7F89440916700C2
:10016000509168006091690070916A003FBFC09033
:100170006D00D0906E00E0906F00F09070004C1910
:100180005D096E097F09473951056105710540F424
:1001900014C0009791F430916C0031110EC0DCCF87
:1001A00030916B00311104C0B99A20936B0003C0E9
:1001B000B99810926B0020936C009093610080932B
:0801C0006000A7CFF894FFCF07
:0201C800010034
:00000001FF
